:060000000A128A1100291A
:10000800F000030EF1000B1812210B191A21710EC2
:080018008300F00E700E0900D8
:1002000058214021502147213721A101A201031388
:100210008312210800228700220800228800302152
:100220002921092903138312061C850A861C8503CC
:100230000B1008002321A00A2008323C031D0800EF
:10024000A10AA001080003138312643081000B117E
:1002500008002208063C031D0800A101A2010800B5
:1002600021080A3C031D0800A20AA101080003138B
:1002700083168112811101158114011023210800B8
:10028000031383160F140F128F160F170800031392
:100290008316161496140313831206080B10080015
:1002A000031383128B178B150B108B160B11080081
:1002B0000317831688018901031383160614861415
:1002C0000611861106128612061386130510851074
:1002D0000511851107108710071187110712871262
:1002E00007130810881008118811081288120813C3
:1002F0008113151495140313831285018601870158
:040300008801080068
:100400008A018A140F39820701344F3412340634BA
:100410004C34243420340F34003404340834603431
:08042000313442343034383429
:04400E00D420FF3F7C
:00000001FF
